:10000000008000101901000000000000F1D1000084
:100010007DD10000ADD10000CDD100000000000076
:1000200000000000000000000000000000000000D0
:10003000000000000000000065B101003DD3000099
:100040007DB1010095B10100ADB10100C5B1010064
:10005000DDB10100F5B101000DB2010025B20100D2
:100060003DB2010055B201006DB2010085B2010040
:100070009DB20100B5B20100CDB20100E5B20100B0
:10008000FDB2010015B301002DB3010045B301001D
:100090005DB3010075B301008DB30100A5B301008C
:1000A000BDB30100D5B30100EDB3010005B40100FB
:1000B0001DB4010035B401004DB4010065B4010068
:1000C0007DB4010010B5054C237833B9044B13B14E
:1000D0000448AFF300800123237010BDD008001046
:1000E00000000000386F040008B5064B1BB106483D
:1000F0000649AFF300800648036813B1054B03B10E
:10010000984708BD00000000386F0400D4080010B4
:10011000D008001000000000684620F007018D465E
:1001200081B583B000AF2DF08FF91D4A1D4B9A4267
:1001300010D01B4B3B601B4B7B6007E07B681A1D9C
:100140007A603A68111D396012681A607A68164B35
:100150009A42F3D3154A164B9A4210D0134B3B6088
:10016000134B7B6007E07B681A1D7A603A68111DAB
:10017000396012681A607A680E4B9A42F3D30E4BBC
:100180007B6004E07B681A1D7A6000221A607A683E
:100190000A4B9A42F6D337F0E5FE04F055FCFEE731
:1001A00048B2040000000010D008001040480400CD
:1001B0000000001000000010D00800105C130010B8
:1001C00080B487B000AFF860B9607A60FB687B618B
:1001D000BB683B6107E07B695A1C7A613A69511C34
:1001E000396112781A707B685A1E7A60002BF2D13E
:1001F0001C37BD465DF8047B704700BF80B487B0F4
:1002000000AFF860B9607A60FB687B6105E07B69EC
:100210005A1C7A61BA68D2B21A707B685A1E7A6028
:10022000002BF4D11C37BD465DF8047B704700BF3E
:1002300080B489B000AFF860B9607A60FB68FB6198
:10024000BB68BB6100237B6100BF7B685A1E7A607C
:10025000002B0DD0FB695A1CFA611B781A46BB694A
:10026000591CB9611B78D31A7B617B69002BECD0D8
:100270007B6918462437BD465DF8047B704700BF94
:1002800080B483B000AF7860396002E07B680133EE
:100290007B607B681B78002B05D07B681B781A4637
:1002A0003B689A42F2D17B681B7818460C37BD46F2
:1002B0005DF8047B704700BF80B584B000AF786004
:1002C00039607B68DB6AFB60FA683B689A424BD016
:1002D0007B681B79002B32D07B685A787B6830337F
:1002E00010461946FA68012310F06AFE0346002BF7
:1002F00001D0012339E07B6800221A717B681A6AF9
:100300007B68DB691A44FB689A4218D97B68DB7802
:10031000FB7211E07B68DB69FA681344FB607B6861
:100320005A787B68303310461946FA68012310F07A
:1003300047FEFB7A013BFB72FB7A012BEAD83B6854
:10034000002B11D07B685A787B68303310461946F1
:100350003A68012310F020FE0346002B01D0012350
:1003600003E07B683A68DA62002318461037BD461E
:1003700080BD00BF80B584B000AF78607868002190
:10038000FFF79AFF0346FB73FB7B002B40F0928044
:100390007B681B78032B40F081807B685B79002BA6
:1003A0007CD07B680022DA627B68303318460021FB
:1003B0004FF40072FFF722FF7B68552283F82E224C
:1003C0007B68AA2283F82F227B68522283F8302090
:1003D0007B68522283F831207B68612283F83220C7
:1003E0007B68412283F833207B68722283F81422D1
:1003F0007B68722283F815227B68412283F81622DB
:100400007B68612283F817227B681B69DAB27B68FC
:1004100083F818227B681B699BB21B0A9BB2DAB275
:100420007B6883F819227B681B691B0CDAB27B6836
:1004300083F81A227B681B691B0EDAB27B6883F88B
:100440001B227B68DB68DAB27B6883F81C227B683E
:10045000DB689BB21B0A9BB2DAB27B6883F81D2271
:100460007B68DB681B0CDAB27B6883F81E227B6832
:10047000DB681B0EDAB27B6883F81F227B68597831
:100480007B6803F130027B685B69084611461A46B7
:10049000012310F095FD7B6800225A717B685B7820
:1004A00018460021002210F063FD0346002B01D006
:1004B0000123FB73FB7B18461037BD4680BD00BF90
:1004C00080B483B000AF786039603B68023B3B602A
:1004D0007B689B699A1E3B689A4201D8002307E01B
:1004E0007B689B783A6802FB03F27B689B6A134443
:1004F00018460C37BD465DF8047B704780B586B062
:1005000000AF786039603B68012B04D97B689A6939
:100510003B689A4201D8012396E07B681B78022B46
:1005200047D0032B65D0012B40F08C803B687B616A
:100530007B695B087A6913447B617B681A6A7B6913
:100540005B0A134478681946FFF7B6FE0346002B92
:1005500000D077E07B69C3F308037A68134493F80B
:1005600030303B617B6901337B617B681A6A7B6950
:100570005B0A134478681946FFF79EFE0346002B7A
:1005800000D05FE07B69C3F308037A68134493F8F3
:1005900030301B023A6913433B613B6803F00103AF
:1005A000002B02D03B691B0902E03B69C3F30B033C
:1005B0004AE07B681A6A3B681B0A1344786819464C
:1005C000FFF77AFE0346002B00D03BE03B685B0060
:1005D00003F4FF7330337A681344FB60FB68013324
:1005E0001B781B029AB2FB681B7813439BB29BB229
:1005F0002AE07B681A6A3B68DB091344786819466D
:10060000FFF75AFE0346002B00D01BE03B689B001F
:1006100003F4FE7330337A681344FB60FB680333E2
:100620001B781A06FB6802331B781B041A43FB680D
:1006300001331B781B021A43FB681B78134323F01A
:10064000704301E04FF0FF3318461837BD4680BDB8
:1006500080B588B000AFF860B9607A60BB68012BE4
:1006600004D9FB689A69BB689A4202D80223FB77D7
:10067000E3E0FB681B78022B70D0032B00F0928024
:10068000012B40F0D580BB68BB61BB695B08BA69D0
:100690001344BB61FB681A6ABB695B0A1344F868C0
:1006A0001946FFF709FE0346FB77FB7F002B00D0BE
:1006B000C0E0BB69C3F308033033FA6813447B61BD
:1006C000BB6803F00103002B0DD07B691B78DBB204
:1006D00003F00F03DAB27B68DBB21B01DBB213431A
:1006E000DBB2DBB201E07B68DBB27A691370BB6915
:1006F0000133BB61FB6801221A71FB681A6ABB698E
:100700005B0A1344F8681946FFF7D6FD0346FB77EA
:10071000FB7F002B00D08DE0BB69C3F308033033AF
:10072000FA6813447B61BB6803F00103002B03D01C
:100730007B681B09DBB20EE07B691B78DBB223F020
:100740000F03DAB27B681B0ADBB203F00F03DBB2E4
:100750001343DBB2DBB27A6913706BE0FB681A6A91
:10076000BB681B0A1344F8681946FFF7A5FD03464A
:10077000FB77FB7F002B00D05CE0BB685B0003F4E1
:10078000FF733033FA6813447B617B68DAB27B69AC
:100790001A707B6901337A6892B2120A92B2D2B2AD
:1007A0001A7047E0FB681A6ABB68DB091344F868F3
:1007B0001946FFF781FD0346FB77FB7F002B00D036
:1007C00038E0BB689B0003F4FE733033FA681344CF
:1007D0007B617B6903331B781A067B6902331B78C4
:1007E0001B041A437B6901331B781B021A437B6984
:1007F0001B78134303F070437A6813437B607B6874
:10080000DAB27B691A707B6901337A6892B2120A94
:1008100092B2D2B21A707B6902337A68120CD2B2E9
:100820001A707B6903337A68120ED2B21A7001E033
:100830000223FB77FB6801221A71FB7F18462037E1
:10084000BD4680BD80B584B000AF786039603B683C
:10085000012B04D97B689A693B689A4202D802232B
:10086000FB7337E00023FB732FE078683968FFF7EC
:1008700045FEB860BB68002B00D12BE0BB68012BA4
:1008800002D10223FB7325E0BB68B3F1FF3F02D125
:100890000123FB731EE0786839680022FFF7D8FE59
:1008A0000346FB73FB7B002B00D013E07B681B69C6
:1008B000B3F1FF3F07D07B681B695A1C7B681A6144
:1008C0007B6801225A71BB683B607B689A693B6810
:1008D0009A42CAD8FB7B18461037BD4680BD00BF80
:1008E00080B586B000AF786039603B68002B0DD1D1
:1008F0007B68DB683B613B69002B04D07B689A69AD
:100900003B699A4215D801233B6112E07868396847
:10091000FFF7F4FDB860BB68012B01D8012366E046
:100920007B689A69BB689A4201D9BB685FE03B6803
:100930003B613B697B617B6901337B617B689A69C1
:100940007B699A4207D802237B617A693B699A42A4
:1009500001D900234BE078687969FFF7CFFDB860D3
:10096000BB68002B0CD100BF786879696FF07042CA
:10097000FFF76EFE0346FB73FB7B002B1AD10FE0E3
:10098000BB68B3F1FF3F02D0BB68012B01D1BB684C
:100990002DE07A693B699A4201D1002327E0CAE73A
:1009A0003B68002B06D0786839687A69FFF750FEFB
:1009B0000346FB73FB7B002B10D17B687A69DA60FE
:1009C0007B681B69B3F1FF3F10D07B681B695A1E1F
:1009D0007B681A617B6801225A7107E0FB7B012B5F
:1009E00002D14FF0FF3300E001237B617B691846A1
:1009F0001837BD4680BD00BF80B584B000AF7860B9
:100A00000B467B807B687A88DA807B689B68FB601A
:100A1000FB68012B05D07B681B689A69FB689A42CA
:100A200001D8022364E0FB68002B08D17B681B68B7
:100A30001B78032B03D17B681B685B6AFB60FB6838
:100A4000002B14D17B68FA68DA607B681B681B890D
:100A50007A889A4201D302234AE07B681B685A6A6B
:100A60007B881B099BB21A447B681A6135E07B685E
:100A70001B689B781B017B811BE07B681B68184609
:100A8000F968FFF73BFDF860FB68B3F1FF3F01D168
:100A900001232DE0FB68012B05D97B681B689A694F
:100AA000FB689A4201D8022322E07A887B89D31A14
:100AB0007B807A887B899A42DFD27B68FA68DA6029
:100AC0007B681B681846F968FFF7FAFC02467B88CA
:100AD0001B099BB21A447B681A617B681A687B8881
:100AE00003F00F035B0130331A447B685A61002323
:100AF00018461037BD4680BD90B585B000AF786010
:100B000039607B68DB8801333B813B89002B03D054
:100B10007B681B69002B01D10423BCE03B8903F0F7
:100B20000F039BB2002B40F0A8807B681B695A1C06
:100B30007B681A617B68DB68002B08D17B681B68C7
:100B40001B893A899A42C0F098800423A3E03B892C
:100B50001B099BB21A467B681B689B78013B1340BC
:100B6000002B40F08A807B681A687B68DB6810463F
:100B70001946FFF7C3FCF860FB68012B01D802237C
:100B800089E0FB68B3F1FF3F01D1012383E07B687B
:100B90001B689A69FB689A4263D83B68002B01D1B5
:100BA000042378E07B681A687B68DB681046194686
:100BB000FFF796FEF860FB68002B01D107236AE07F
:100BC000FB68012B01D1022365E0FB68B3F1FF3F15
:100BD00001D101235FE07B681B6818460021FFF705
:100BE0006BFB0346002B01D0012354E07B681B689C
:100BF0003033184600214FF40072FFF7FFFA7B688C
:100C00001C687B681B681846F968FFF759FC0346A7
:100C1000E3620023FB7216E07B681B6801221A71F5
:100C20007B681B6818460021FFF746FB0346002B34
:100C300001D001232FE07B681B68DA6A0132DA6297
:100C4000FB7A0133FB727B681B689B78FA7A9A42C5
:100C5000E2D37B681B687A681268D16AFA7A8A1ACA
:100C6000DA627B68FA68DA607B681B681846F968A4
:100C7000FFF726FC02467B681A617B683A89DA80B6
:100C80007B681A683B8903F00F035B0130331A4419
:100C90007B685A61002318461437BD4690BD00BFDB
:100CA00080B485B000AF786039603B681B331B7837
:100CB0001B029AB23B681A331B7813439BB29BB258
:100CC000FB607B681B78032B0ED13B6815331B78C8
:100CD0001B029AB23B6814331B7813439BB29BB23E
:100CE0001B04FA681343FB60FB6818461437BD46C3
:100CF0005DF8047B704700BF80B483B000AF7860BC
:100D000039607B681A333A68D2B21A707B681B3339
:100D10003A6892B2120A92B2D2B21A707B68143355
:100D20003A68120CD2B21A707B6815333A68120C0A
:100D300092B2120A92B2D2B21A700C37BD465DF866
:100D4000047B704780B586B000AF786039603B683F
:100D50001B7823F040035A1E13465B0013449B008C
:100D600013447B6100233B610123FB81294A3B69DA
:100D700013441B7801333A6813441B781B029AB260
:100D800024493B690B441B7839680B441B78134397
:100D90009BB2BB81FB89002B18D0BB89184602F09F
:100DA00065FA0346FB817B69FE2B0DD87B695A1CD3
:100DB0007A615B007A6813441B88184602F056FA81
:100DC0000346FA899A4208D000231FE0BA894FF6F9
:100DD000FF739A4201D0002318E03B6901333B6165
:100DE0003B690C2BC2D93B681B7803F04003002BF6
:100DF0000BD0FB89002B08D07B695B007A68134419
:100E00001B88002B01D0002300E00123184618376F
:100E1000BD4680BD88FE030080B487B000AF786017
:100E200039603B681B7803F03F035A1E13465B0092
:100E300013449B0013447B6100233B610123FB812E
:100E4000254A3B6913441B7801333A6813441B78E5
:100E50001B029AB220493B690B441B7839680B444A
:100E60001B7813439BB2BB81FB89002B0FD07B699E
:100E7000FE2B01D9002329E07B695A1C7A615B00B3
:100E80007A681344BA89FA81FA891A8006E0BA8925
:100E90004FF6FF739A4201D0002317E03B690133FC
:100EA0003B613B690C2BCBD93B681B7803F04003BB
:100EB000002B0AD07B69FE2B01D9002306E07B6959
:100EC0005B007A68134400221A80012318461C37FD
:100ED000BD465DF8047B704788FE030080B489B08E
:100EE00000AFF860B960FA71BB71BB680D33BA79B5
:100EF0001A70BB680B330F221A70BB680C330022C8
:100F00001A70BB681A3300221A70BB681B330022A8
:100F10001A70FB795A1E13465B0013449B0013445E
:100F2000FB610023FB820023BB61FA8A4FF6FF734B
:100F30009A4207D0FB695A1CFA615B00FA681344B5
:100F40001B88FB821C4ABB6913441B78BA68134494
:100F5000FA8AD2B21A70184ABB6913441B7801335B
:100F6000BA681344FA8A120A92B2D2B21A70FB8A91
:100F7000002B02D14FF6FF73FB82BB690133BB61CB
:100F8000BB690C2BD1D9FA8A4FF6FF739A4206D06F
:100F9000FB695B00FA6813441B88002B03D1FB79C3
:100FA00043F04003FB71BB68FA791A702437BD46E1
:100FB0005DF8047B704700BF88FE030080B58AB0EF
:100FC00000AFF860B9607A607B80F868B9680B227E
:100FD000FFF7F6F87B88052B0FD97B889AB2520869
:100FE000DB0313439AB27B68991C79601B88134416
:100FF0007B807B681B88002BEFD107233B627B88BB
:10100000DBB203F00F03DBB2303387F8273097F8F9
:101010002730392B04D997F82730073387F8273042
:101020003B6A5A1E3A6207F128010B4497F82720C1
:1010300003F8142C7B881B097B807B88002BDED176
:1010400007F114023B6A13447E221A700023FB61ED
:1010500002E0FB690133FB61FA693B6A9A4205D2FF
:10106000FA68FB6913441B78202BF2D1FB695A1CE8
:10107000FA61FA681A443B6A072B08D83B6A591C84
:10108000396207F128010B4413F8143C00E02023D7
:101090001370FB69072BE9D92837BD4680BD00BF17
:1010A00080B485B000AF78600023FB730B23BB6076
:1010B000FB7BDAB25208DB011343DAB27B68591CBE
:1010C00079601B781344FB73BB68013BBB60BB6852
:1010D000002BEDD1FB7B18461437BD465DF8047B31
:1010E000704700BF80B586B000AF78607868002197
:1010F000FFF782FC0346FB75FB7D002B01D0FB7DD7
:1011000093E0FF233B753B7D7B757B681A687B68AA
:101110001B6910461946FFF7CFF80346FB75FB7DA8
:10112000002B00D080E07B685B693B613B691B78EA
:10113000BB75BB7D002B02D10423FB7574E03B69BA
:101140000B331B7803F03F03FB73BB7DE52B07D00C
:10115000FB7B03F00803002B05D0FB7B0F2B02D099
:10116000FF237B7556E0FB7B0F2B2FD17B68DB6960
:10117000002B4FD0BB7D03F04003002B0CD03B690C
:101180005B7B3B75BB7D23F04003BB75BB7D7B75F3
:101190007B68DA887B681A84BA7D7B7D9A4212D19B
:1011A0003B690D331B783A7D9A420CD17B68DB6931
:1011B00018463969FFF7C6FD0346002B03D07B7D37
:1011C000013BDBB200E0FF237B7523E07B7D002B3E
:1011D00007D13869FFF764FF03463A7D9A4200D190
:1011E00022E0FF237B757B684FF6FF721A847B68D1
:1011F0009B690B331B7803F00103002B0AD17B683A
:101200009B69386919460B22FFF712F80346002B39
:1012100000D109E078680021FFF76EFC0346FB75FA
:10122000FB7D002B3FF471AFFB7D18461837BD46A0
:1012300080BD00BF80B586B000AF7860FF237B75AE
:10124000FF233B750423FB7579E07B681A687B6894
:101250001B6910461946FFF72FF80346FB75FB7D07
:10126000002B00D06FE07B685B693B613B691B78BA
:10127000BB75BB7D002B02D10423FB7563E03B698A
:101280000B331B7803F03F03FB73BB7DE52B0AD0C8
:10129000BB7D2E2B07D0FB7B03F00803002B05D072
:1012A000FB7B0F2B02D0FF237B753EE0FB7B0F2BDC
:1012B0002BD1BB7D03F04003002B0CD03B695B7B43
:1012C0003B75BB7D23F04003BB75BB7D7B757B68A5
:1012D000DA887B681A84BA7D7B7D9A4212D13B6999
:1012E0000D331B783A7D9A420CD17B68DB69184636
:1012F0003969FFF791FD0346002B03D07B7D013B4D
:10130000DBB200E0FF237B750FE07B7D002B06D175
:101310003869FFF7C5FE03463A7D9A4204D07B68E0
:101320004FF6FF721A840EE00DE078680021FFF797
:10133000E3FB0346FB75FB7D002B00D003E07B68DD
:101340001B69002B81D1FB7D002B02D07B68002222
:101350001A61FB7D18461837BD4680BD80B58CB03C
:1013600000AF78607B689B697B627B68DB693B626E
:1013700007F10C031846796A0C22FEF721FFFB7D6A
:1013800003F00103002B35D07B6A0B3300221A7067
:101390007B680022DA610123BB8515E007F10C02AE
:1013A000BB8D786A11463A6AFFF708FE7868FFF746
:1013B00099FE034687F82F3097F82F30002B00D086
:1013C00005E0BB8D0133BB85BB8D632BE6D9BB8D9F
:1013D000642B01D10723F0E097F82F30042B02D0C3
:1013E00097F82F30E9E07B6A0B33FA7D1A707B683F
:1013F0003A6ADA61FB7D03F00203002B16D000236A
:101400007B8502E07B8D01337B857B8D5B003A6AB7
:1014100013441B88002BF5D17B8D1933694A82FB5D
:1014200003129210DB17D31A7B8501E001237B8521
:1014300078680021FFF7E0FA034687F82F3097F825
:101440002F30002B02D097F82F30B6E000233B85D9
:101450003B8DBB857B681A687B681B691046194603
:10146000FEF72AFF034687F82F3097F82F30002B1E
:1014700000D025E07B685B691B78FB77FB7FE52B61
:1014800002D0FB7F002B0ED1BB8D002B02D17B68DD
:10149000DB883B85BB8D0133BB85BA8D7B8D9A4242
:1014A00000D10DE001E00023BB8578680121FFF742
:1014B00023FB034687F82F3097F82F30002BC9D035
:1014C00097F82F30002B46D17B8D012B43D93B8DD4
:1014D00078681946FFF790FA034687F82F3097F897
:1014E0002F30002B37D17B689B691846FFF7D8FD5A
:1014F0000346BB777B8D013B7B857B681A687B68E5
:101500001B6910461946FEF7D7FE034687F82F30B1
:1015100097F82F30002B00D01DE07B68D8697B68DE
:1015200059697B8DDAB2BB7FFFF7D8FC7B681B68FB
:1015300001221A7178680021FFF7DEFA034687F866
:101540002F3097F82F30002B05D17B8D013B7B8509
:101550007B8D002BD1D197F82F30002B2BD17B68BE
:101560001A687B681B6910461946FEF7A5FE0346FC
:1015700087F82F3097F82F30002B1CD17B685B69E0
:10158000BB61B86900212022FEF738FE7B689B69A9
:10159000B86919460B22FEF713FEBB690C337A6853
:1015A00092690B32127802F01802D2B21A707B687C
:1015B0001B6801221A7197F82F3018463037BD4644
:1015C00080BD00BF4FECC44E80B584B000AF7860E2
:1015D0007B68DB88BB817B681A8C4FF6FF739A426D
:1015E00002D07B681B8C00E0BB8978681946FFF746
:1015F00003FA0346FB73FB7B002B29D17B681A6837
:101600007B681B6910461946FEF756FE0346FB73BE
:10161000FB7B002B00D016E07B685B69E5221A702B
:101620007B681B6801221A717B68DB88BA899A4241
:1016300000D808E078680021FFF75EFA0346FB73E4
:10164000FB7B002BDAD0FB7B042B01D10223FB7345
:10165000FB7B18461037BD4680BD00BF80B58AB001
:1016600000AF786039603B681B683B6102E03B6912
:1016700001333B613B691B782F2BF8D03B691B780A
:101680005C2BF4D07B68DB69FB6000237B617B69AA
:10169000BB61BB695A1CBA613A6913441B78BB84AD
:1016A000BB8C1F2B2FD9BB8C2F2B2CD0BB8C5C2B36
:1016B00029D07B69FE2B01D906237BE1BB8CDBB2F1
:1016C000BB84BB8C1846012101F094FD0346BB840A
:1016D000BB8C002B01D106236CE1BB8C7F2B09D87E
:1016E000BB8C8D481946FEF7CBFD0346002B01D07D
:1016F00006235FE17B695A1C7A615B00FA68134438
:10170000BA8C1A80C5E73A69BB691A443B681A600B
:10171000BB8C1F2B01D8042300E0002387F8263060
:1017200012E07B6903F10043013B5B00FA6813445C
:101730001B88BB84BB8C202B03D0BB8C2E2B00D0F2
:1017400005E07B69013B7B617B69002BE9D17B690B
:10175000002B01D106232DE17B695B00FA6813445D
:1017600000221A807B689B69184620210B22FEF715
:1017700045FD0023BB6102E0BB690133BB61BB696E
:101780005B00FA6813441B88202BF5D0BB695B0013
:10179000FA6813441B882E2BEED0BB69002B06D0B1
:1017A00097F8263043F0030387F8263003E002E081
:1017B0007B69013B7B617B69002B09D07B6903F16D
:1017C0000043013B5B00FA6813441B882E2BEFD1CA
:1017D00000233B62002387F827300823FB61BB69A5
:1017E0005A1CBA615B00FA6813441B88BB84BB8C2B
:1017F000002B00D196E0BB8C202B06D0BB8C2E2B6F
:101800000AD1BA697B699A4206D097F8263043F02C
:10181000030387F826307EE03A6AFB699A4203D2D6
:10182000BA697B699A4224D1FB690B2B06D197F8E0
:10183000263043F0030387F8263073E0BA697B69EA
:101840009A4205D097F8263043F0030387F82630F4
:10185000BA697B699A4200D964E07B69BB6108235D
:101860003B620B23FB6197F827309B0087F82730FA
:1018700051E0BB8C7F2B14D9BB8C1846002101F0A2
:10188000B9FC0346BB84BB8C002B04D0BB8C803BD3
:10189000224AD35CBB8497F8263043F0020387F8D2
:1018A0002630BB8C002B07D0BB8C1D481946FEF799
:1018B000E7FC0346002B08D05F23BB8497F8263053
:1018C00043F0030387F826301BE0BB8C402B09D97B
:1018D000BB8C5A2B06D897F8273043F0020387F8C1
:1018E00027300EE0BB8C602B0BD9BB8C7A2B08D831
:1018F00097F8273043F0010387F82730BB8C203B53
:10190000BB847B689A693B6A591C39621344BA8C60
:10191000D2B21A7063E762E798FE0300ACFE0300E0
:10192000A4FE03007B689B691B78E52B03D17B68D1
:101930009B6905221A70FB69082B04D197F82730A0
:101940009B0087F8273097F8273003F00C030C2B07
:1019500005D097F8273003F00303032B05D197F840
:10196000263043F0020387F8263097F8263003F03C
:101970000203002B17D197F8273003F00303012B44
:1019800005D197F8263043F0100387F8263097F8F2
:10199000273003F00C03042B05D197F8263043F0D1
:1019A000080387F826307B689B690B3397F826205D
:1019B0001A70002318462837BD4680BD80B584B014
:1019C00000AF786039603B681B782F2B03D03B68F1
:1019D0001B785C2B02D13B6801333B607B680022A3
:1019E0009A603B681B781F2B09D878680021FFF7A5
:1019F00003F80346FB737B6800225A6140E03B46D4
:101A000078681946FFF72AFE0346FB73FB7B002B21
:101A100000D035E07868FFF765FB0346FB737B6811
:101A20009B69DB7ABB73FB7B002B0CD0FB7B042B0D
:101A300000D025E0BB7B03F00403002B02D105237B
:101A4000FB731DE01CE0BB7B03F00403002B00D004
:101A500016E07B685B69BB60BB680B331B7803F0E7
:101A60001003002B02D10523FB7309E07B681B6880
:101A70001846B968FFF714F902467B689A60BEE71A
:101A8000FB7B18461037BD4680BD00BF80B582B0D5
:101A900000AF786039607B685A787B6830331046D5
:101AA00019463A6801230FF077FA0346002B01D05C
:101AB000032342E07B6893F82F321B029AB27B68C3
:101AC00093F82E3213439BB21AB21E4B9A4201D0A6
:101AD000022332E07B6893F869301A067B6893F83A
:101AE00068301B041A437B6893F867301B021A4363
:101AF0007B6893F86630134323F07F42124B9A427F
:101B000001D1002319E07B6893F885301A067B68C1
:101B100093F884301B041A437B6893F883301B02CC
:101B20001A437B6893F88230134323F07F42064BBD
:101B30009A4201D1002300E0012318460837BD4630
:101B400080BD00BF55AAFFFF4641540080B592B04A
:101B500000AFF860B9601346FB71FB681B68FB625D
:101B6000FB6A1B78303B3B643B6C092B0BD8FB6A50
:101B700001331B783A2B06D1FB6A0233FB62FB6808
:101B8000FA6A1A6001E000233B64BB6800221A6015
:101B90003B6C022B01D90B236EE2AD4B3A6C53F830
:101BA0002230BB62BB6A002B01D10C2364E2BB680C
:101BB000BA6A1A60BB6A1B78002B1AD0BB6A5B78C2
:101BC00018460FF0C7F9034687F8273097F82730F3
:101BD00003F00103002B0CD1FB79002B07D097F801
:101BE000273003F00403002B01D00A2344E2002332
:101BF00042E2BB6A00221A703B6CDAB2BB6A5A70CE
:101C0000BB6A5B7818460FF097F9034687F82730D0
:101C100097F8273003F00103002B01D003232BE2B8
:101C2000FB79002B07D097F8273003F00403002B33
:101C300001D00A2320E20023FB63B86AF96BFFF7A7
:101C400025FF034687F8473097F84730012B33D1FB
:101C5000002387F8463097F84630002B04D097F8D9
:101C60004630013B87F8463097F846301B0103F5B4
:101C7000DF733033BA6A13443B623B6A04331B7828
:101C8000002B19D03B6A0B331B781A063B6A0A33C8
:101C90001B781B041A433B6A09331B781B021A4347
:101CA0003B6A08331B781343FB63B86AF96BFFF791
:101CB000EDFE034687F8473097F84730032B01D1F4
:101CC0000123D9E197F84730002B01D00D23D3E150
:101CD000BB6A93F83C301B029AB2BB6A93F83B3064
:101CE00013439BB21BB2B3F5007F01D00D23C3E1B8
:101CF000BB6A93F847301B029AB2BB6A93F846302E
:101D000013439BB29BB2BB63BB6B002B12D1BB6A6C
:101D100093F857301A06BB6A93F856301B041A43DF
:101D2000BB6A93F855301B021A43BB6A93F85430D0
:101D30001343BB63BB6ABA6BDA61BB6A93F840308A
:101D4000FB77BB6AFA7FDA70FB7F012B04D0FB7F45
:101D5000022B01D00D238FE1FA7FBB6B02FB03F353
:101D6000BB63BB6A93F83D30FB77BB6AFA7F9A701E
:101D7000FB7F002B05D0FA7FFB7F013B1340002B3C
:101D800001D00D2378E1BB6A93F842301B029AB26E
:101D9000BB6A93F8413013439BB29AB2BB6A1A8173
:101DA000BB6A1B8903F00F039BB2002B01D00D23EC
:101DB00062E1BB6A93F844301B029AB2BB6A93F8A3
:101DC000433013439BB29BB27B637B6B002B12D1DE
:101DD000BB6A93F853301A06BB6A93F852301B045F
:101DE0001A43BB6A93F851301B021A43BB6A93F83B
:101DF000503013437B63BB6A93F83F301B029AB2A7
:101E0000BB6A93F83E3013439BB2BB83BB8B002B62
:101E100001D10D2330E1BA8BBB6B1A44BB6A1B891D
:101E20001B099BB21344BB617A6BBB699A4201D216
:101E30000D2321E17A6BBB69D21ABB6A9B78B2FB96
:101E4000F3F37B617B69002B04D10D2314E100BF08
:101E5000EC080010012387F847307A6940F6F573E3
:101E60009A4202D9022387F847307A694FF6F57310
:101E70009A4202D9032387F847307B699A1CBB6AD0
:101E80009A61FA6BBB691A44BB6A9A62BA8BFB6BA4
:101E90001A44BB6A1A6297F84730032B1ED1BB6AFB
:101EA0001B89002B01D00D23E6E0BB6A93F85F305D
:101EB0001A06BB6A93F85E301B041A43BB6A93F898
:101EC0005D301B021A43BB6A93F85C301A43BB6A4D
:101ED0005A62BB6A9B699B003B631FE0BB6A1B891C
:101EE000002B01D10D23C7E0BB6A1A6ABB6B1A44F1
:101EF000BB6A5A6297F84730022B03D1BB6A9B69D1
:101F00005B000AE0BB6A9A6913465B0013445A08F7
:101F1000BB6A9B6903F0010313443B63BB6ADA6944
:101F20003B6B03F2FF135B0A9A4201D20D23A3E03D
:101F3000BB6A4FF0FF321A61BB6A0022DA6097F881
:101F40004730032B40F08380BB6A00225A71BB6A82
:101F500093F861301B029AB2BB6A93F86030134366
:101F60009BB29BB21A46FB6B1A44BB6A5A61BB6AAE
:101F70005978BB6A03F13002BB6A5B6908461146B7
:101F80001A4601230FF008F80346002B5FD1BB6A05
:101F900093F82F321B029AB2BB6A93F82E32134386
:101FA0009BB21AB2364B9A4251D1BB6A93F8333086
:101FB0001A06BB6A93F832301B041A43BB6A93F8C3
:101FC00031301B021A43BB6A93F830301A432D4B51
:101FD0009A423CD1BB6A93F817321A06BB6A93F84F
:101FE00016321B041A43BB6A93F815321B021A43BC
:101FF000BB6A93F814321A43234B9A4227D1BB6A27
:1020000093F81F321A06BB6A93F81E321B041A4358
:10201000BB6A93F81D321B021A43BB6A93F81C3249
:102020001A43BB6ADA60BB6A93F81B321A06BB6AB2
:1020300093F81A321B041A43BB6A93F819321B0235
:102040001A43BB6A93F818321A43BB6A1A61BB6A17
:1020500097F847201A700D4B1B8801339AB20B4B2F
:102060001A800A4B1A88BB6ADA80BB6A0022DA62DD
:10207000BB6A00221A71002318464837BD4680BD4E
:1020800055AAFFFF5252614172724161F808001077
:1020900080B584B000AF78607B68FB60FB681B682C
:1020A000002B0BD0FB681B681B78002B06D0FB684D
:1020B0001B68DA88FB689B889A4201D009230DE0EF
:1020C000FB681B685B7818460EF044FF034603F07C
:1020D0000103002B01D0032300E000231846103732
:1020E000BD4680BD80B485B000AF03463960FB714A
:1020F000FB79022B01D90B2316E0FA790D4B53F82B
:102100002230FB60FB68002B02D0FB6800221A70B3
:102110003B68002B02D03B6800221A70FA79054B0D
:10212000396843F82210002318461437BD465DF87D
:10213000047B7047EC08001080B5ADF5147D00AF4E
:1021400007F10C03186007F108031960FB1D1A70F2
:1021500007F10C031B68002B01D1092384E107F16F
:102160000C031B6800221A60FB1DFA1D127802F096
:102170001F021A70FB1D1B7823F00103DBB207F16D
:10218000080107F50772084611461A46FFF7DEFCFC
:10219000034687F84F3297F84F32002B40F06281A8
:1021A00007F50473C7F8343207F11003C7F8383263
:1021B00007F108031B6807F5077210461946FFF779
:1021C000FDFB034687F84F32D7F83032C7F8483264
:1021D00097F84F32002B06D1D7F84832002B02D1A6
:1021E000062387F84F32FB1D1B7803F01C03002BDE
:1021F00000F0B38097F84F32002B16D097F84F328B
:10220000042B07D107F507731846FFF7A7F8034615
:1022100087F84F32FB1DFA1D127842F008021A703F
:10222000D7F83032C7F8483214E0D7F848320B33C9
:102230001B7803F01103002B03D0072387F84F32DC
:1022400008E0FB1D1B7803F00403002B02D00823D9
:1022500087F84F3297F84F32002B7DD1FB1D1B784A
:1022600003F00803002B77D00EF0BEFEC7F844023F
:10227000D7F848320E33D7F84422D2B21A70D7F8C2
:1022800048320F33D7F8442292B2120A92B2D2B235
:102290001A70D7F848321033D7F84422120CD2B251
:1022A0001A70D7F848321133D7F84422120ED2B23E
:1022B0001A70D7F848320B3300221A70D7F8483218
:1022C0001C3300221A70D7F848321D3300221A70CE
:1022D000D7F848321E3300221A70D7F848321F331D
:1022E00000221A70D7F81C321846D7F84812FEF7A9
:1022F000D7FCC7F84002D7F848020021FEF7FCFCE3
:10230000D7F81C3201221A71D7F84032002B23D0A3
:10231000D7F81C32DB6AC7F84432D7F81C321846AB
:10232000D7F84012FEF78EFA034687F84F3297F837
:102330004F32002B10D1D7F81C32D7F84022013A87
:10234000DA60D7F81C321846D7F84412FDF7B4FF0C
:10235000034687F84F3221E020E097F84F32002BF8
:102360001CD1D7F848320B331B7803F01003002B35
:1023700003D0042387F84F3210E0FB1D1B7803F0D5
:102380000203002B0AD0D7F848320B331B7803F036
:102390000103002B02D0072387F84F3297F84F3202
:1023A000002B18D1FB1D1B7803F00803002B05D070
:1023B000FB1DFA1D127842F020021A70D7F81C3269
:1023C000DA6A07F10C031B68DA6107F10C031B687A
:1023D000D7F848221A6297F84F32002B42D107F102
:1023E0000C031B68FA1D12789A71D7F81C32184634
:1023F000D7F84812FEF754FC024607F10C031B689D
:102400001A61D7F848321F331B781A06D7F84832BA
:102410001E331B781B041A43D7F848321D331B7830
:102420001B021A43D7F848321C331B781A4307F1B2
:102430000C031B68DA6007F10C031B6800229A602A
:1024400007F10C031B6800229A61D7F81C2207F1E0
:102450000C031B681A60D7F81C32DA8807F10C03EA
:102460001B689A8097F84F32184607F51477BD46D7
:1024700080BD00BF80B58CB000AFF860B9607A60F5
:102480003B60BB683B623B6800221A60F868FFF75C
:10249000FFFD0346FB77FB7F002B01D0FB7F3CE178
:1024A000FB689B79DBB25BB2002B01DA022334E1DB
:1024B000FB689B7903F00103002B01D107232CE17A
:1024C000FB68DA68FB689B68D31ABB617A68BB69F2
:1024D0009A4202D9BB697B601AE119E1FB689B68EB
:1024E000C3F30803002B40F0E580FB689B685B0AA0
:1024F000DAB2FB681B689B78013BDBB21340FB75CB
:10250000FB7D002B2CD1FB689B68002B03D1FB6863
:102510001B69FB6208E0FB681A68FB685B69104690
:102520001946FDF7EBFFF862FB6A012B08D8FB6840
:102530009B7963F07F03DAB2FB689A710223ECE0C7
:10254000FB6AB3F1FF3F08D1FB689B7963F07F031F
:10255000DAB2FB689A710123DFE0FB68FA6A5A611C
:10256000FB681A68FB685B6910461946FDF7A8FF0F
:1025700038613B69002B08D1FB689B7963F07F03CE
:10258000DAB2FB689A710223C7E0FB7D3A69134413
:102590003B617B685B0A7B627B6A002B44D0FA7DDF
:1025A0007B6A1A44FB681B689B789A4206D9FB68D1
:1025B0001B689B781A46FB7DD31A7B62FB681B68FD
:1025C0005A787B6ADBB21046396A3A690EF0E4FC4D
:1025D0000346002B08D0FB689B7963F07F03DAB2D7
:1025E000FB689A71012398E0FB689B7903F0400334
:1025F000002B15D0FB689A693B69D21A7B6A9A4214
:102600000ED2FB689A693B69D31A5B023A6A1A4494
:10261000FB682433104619464FF40072FDF7D0FDD5
:102620007B6A5B02BB625FE0FB689A693B699A4226
:102630003DD0FB689B7903F04003002B20D0FB6862
:102640001B685978FB6803F12402FB689B69084604
:1026500011461A4601230EF0B3FC0346002B08D0A6
:10266000FB689B7963F07F03DAB2FB689A71012300
:1026700053E0FB689B7923F04003DAB2FB689A7160
:10268000FB681B685A78FB682433104619463A6980
:1026900001230EF081FC0346002B08D0FB689B79D8
:1026A00063F07F03DAB2FB689A71012335E0FB68BF
:1026B0003A699A61FB689B68C3F30803C3F500732A
:1026C000BB62BA6A7B689A4201D97B68BB62FB68CD
:1026D0009B68C3F308032033FA6813440433386A51
:1026E0001946BA6AFDF76CFD3A6ABB6A13443B624D
:1026F000FB689A68BB6A1A44FB689A603B681A6870
:10270000BB6A1A443B681A607A68BB6AD31A7B605A
:102710007B68002B7FF4E2AE002318463037BD46BD
:1027200080BD00BF80B58AB000AFF860B9607A6044
:102730003B60BB68BB613B6800221A60F868FFF72A
:10274000A7FC0346FB75FB7D002B01D0FB7D6BE1F5
:10275000FB689B79DBB25BB2002B01DA022363E1F9
:10276000FB689B7903F00203002B01D107235BE197
:10277000FB68DA687B681A44FB68DB689A4202D21D
:1027800000237B603AE139E1FB689B68C3F30803EF
:10279000002B40F0FE80FB689B685B0ADAB2FB68A6
:1027A0001B689B78013BDBB21340BB75BB7D002BE4
:1027B0003DD1FB689B68002B10D1FB681B697B62D5
:1027C0007B6A002B13D1FB681B6818460021FEF7BB
:1027D00087F87862FB687A6A1A6108E0FB681A6811
:1027E000FB685B6910461946FEF77AF878627B6AE7
:1027F000002B00D106E17B6A012B08D1FB689B7995
:1028000063F07F03DAB2FB689A7102230CE17B6A02
:10281000B3F1FF3F08D1FB689B7963F07F03DAB225
:10282000FB689A710123FFE0FB687A6A5A61FB68D2
:102830009B7903F04003002B20D0FB681B6859787C
:10284000FB6803F12402FB689B69084611461A469F
:1028500001230EF0B5FB0346002B08D0FB689B79E3
:1028600063F07F03DAB2FB689A710123DCE0FB6856
:102870009B7923F04003DAB2FB689A71FB681A680F
:10288000FB685B6910461946FDF71AFE38613B6923
:10289000002B08D1FB689B7963F07F03DAB2FB68F9
:1028A0009A710223C0E0BB7D3A6913443B617B68A7
:1028B0005B0AFB61FB69002B46D0BA7DFB691A44B9
:1028C000FB681B689B789A4206D9FB681B689B785B
:1028D0001A46BB7DD31AFB61FB681B685A78FB69FB
:1028E000DBB21046B9693A690EF06AFB0346002B69
:1028F00008D0FB689B7963F07F03DAB2FB689A71BA
:10290000012391E0FB689A693B69D21AFB699A42FC
:1029100016D2FB6803F12402FB6899693B69CB1A64
:102920005B02B9690B44104619464FF40072FDF77B
:1029300047FCFB689B7923F04003DAB2FB689A718D
:10294000FB695B023B6245E0FB689A693B699A421E
:102950001CD0FB689A68FB68DB689A4216D2FB6859
:102960001B685A78FB682433104619463A690123DC
:102970000EF012FB0346002B08D0FB689B7963F036
:102980007F03DAB2FB689A7101234DE0FB683A6974
:102990009A61FB689B68C3F30803C3F500733B624D
:1029A0003A6A7B689A4201D97B683B62FB689B6804
:1029B000C3F308032033FA68134404331846B96993
:1029C0003A6AFDF7FDFBFB689B7943F04003DAB2FE
:1029D000FB689A71BA693B6A1344BB61FB689A68E9
:1029E0003B6A1A44FB689A603B681A683B6A1A445F
:1029F0003B681A607A683B6AD31A7B607B68002B5D
:102A00007FF4C2AEFB689A68FB68DB689A4203D920
:102A1000FB689A68FB68DA60FB689B7943F02003E7
:102A2000DAB2FB689A71002318462837BD4680BD8C
:102A300080B586B000AF78607868FFF729FB034661
:102A4000FB75FB7D002B40F099807B689B7903F040
:102A50002003002B00F092807B689B7903F04003F9
:102A6000002B19D07B681B6859787B6803F124021E
:102A70007B689B69084611461A4601230EF0A0FAAE
:102A80000346002B01D0012379E07B689B7923F07A
:102A90004003DAB27B689A717B681A687B68DB69ED
:102AA00010461946FDF708FC0346FB75FB7D002B1D
:102AB00064D17B681B6A3B613B690B333A690B321B
:102AC000127842F02002D2B21A703B691C337A6845
:102AD000D268D2B21A703B691D337A68D26892B25A
:102AE000120A92B2D2B21A703B691E337A68D26867
:102AF000120CD2B21A703B691F337A68D268120E78
:102B0000D2B21A707B681B6938691946FEF7F4F86F
:102B10000EF06AFAF8603B691633FA68D2B21A709E
:102B20003B691733FA6892B2120A92B2D2B21A70A3
:102B30003B691833FA68120CD2B21A703B69193328
:102B4000FA68120ED2B21A703B69123300221A7060
:102B50003B69133300221A707B689B7923F02003B2
:102B6000DAB27B689A717B681B6801221A717B68F4
:102B70001B681846FDF7FEFB0346FB75FB7D1846F8
:102B80001837BD4680BD00BF80B584B000AF786007
:102B90007868FFF74DFF0346FB73FB7B002B02D1E8
:102BA0007B6800221A60FB7B18461037BD4680BD4B
:102BB00080B588B000AF786039607868FFF768FA50
:102BC0000346FB75FB7D002B01D0FB7D40E17B685C
:102BD0009B79DBB25BB2002B01DA022338E17B6820
:102BE000DA683B689A4208D27B689B7903F002035B
:102BF000002B02D17B68DB683B607B689B683B6194
:102C00000023BB617B68BA699A603B68002B00F0C7
:102C1000C1807B681B689B785B02FB603B69002B73
:102C20001BD03B685A1EFB68B2FBF3F23B69591E8E
:102C3000FB68B1FBF3F39A420FD33B695A1EFB6862
:102C40005B421A407B689A607B689B683A68D31A3B
:102C50003B607B685B69FB612BE07B681B69FB6108
:102C6000FB69002B22D17B681B6818460021FDF709
:102C700037FEF861FB69012B08D17B689B7963F013
:102C80007F03DAB27B689A710223E1E0FB69B3F15A
:102C9000FF3F08D17B689B7963F07F03DAB27B68E2
:102CA0009A710123D4E07B68FA691A617B68FA693A
:102CB0005A61FB69002B6DD045E07B689B7903F07E
:102CC0000203002B0CD07B681B681846F969FDF7DE
:102CD00007FEF861FB69002B09D1FB683B6036E019
:102CE0007B681B681846F969FDF708FCF861FB6909
:102CF000B3F1FF3F08D17B689B7963F07F03DAB2C1
:102D00007B689A710123A3E0FB69012B05D97B68DD
:102D10001B689A69FB699A4208D87B689B7963F0C3
:102D20007F03DAB27B689A71022391E07B68FA69CB
:102D30005A617B689A68FB681A447B689A603A68B3
:102D4000FB68D31A3B603A68FB689A42B5D87B6847
:102D50009A683B681A447B689A603B68C3F308032F
:102D6000002B17D07B681B681846F969FDF7A8FB94
:102D7000B861BB69002B08D17B689B7963F07F0346
:102D8000DAB27B689A71022362E03B685B0ABA6937
:102D90001344BB617B689B68C3F30803002B45D0D9
:102DA0007B689A69BB699A4240D07B689B7903F043
:102DB0004003002B20D07B681B6859787B6803F1A7
:102DC00024027B689B69084611461A4601230EF0CF
:102DD000F7F80346002B08D07B689B7963F07F03EC
:102DE000DAB27B689A71012332E07B689B7923F029
:102DF0004003DAB27B689A717B681B685A787B68FB
:102E0000243310461946BA6901230EF0C5F803466B
:102E1000002B08D07B689B7963F07F03DAB27B6874
:102E20009A71012314E07B68BA699A617B689A6899
:102E30007B68DB689A420AD97B689A687B68DA60AB
:102E40007B689B7943F02003DAB27B689A71FB7D43
:102E500018462037BD4680BD80B5ADF51A7D00AF60
:102E60003B1D18603A1D07F50E73104619460122E6
:102E7000FEF76CFE034687F8673297F86732002B3F
:102E800040F0A68007F50273C7F8503207F1080337
:102E9000C7F854323B1D1B6807F50E7210461946E1
:102EA000FEF78CFD034687F8673297F86732002BF0
:102EB00040F08E80D7F84C32C7F86032D7F86032D5
:102EC000002B03D1062387F867320AE0D7F8603277
:102ED0000B331B7803F00103002B02D0072387F884
:102EE0006732D7F838321846D7F86012FDF7D8FEA7
:102EF000C7F85C0297F86732002B3FD1D7F86032F1
:102F00000B331B7803F01003002B37D0D7F85C325B
:102F1000012B03D8022387F867322FE007F50572EB
:102F200007F50E73104619462422FDF749F9D7F824
:102F30005C32C7F81C3207F5057318460221FDF70D
:102F40005BFD034687F8673297F86732002B15D18F
:102F500007F505731846FEF76DF9034687F86732E3
:102F600097F86732002B02D1072387F8673297F86A
:102F70006732042B02D1002387F8673297F8673253
:102F8000002B25D107F50E731846FEF71DFB0346EF
:102F900087F8673297F86732002B19D1D7F85C327F
:102FA000002B09D0D7F838321846D7F85C12FDF755
:102FB00049FC034687F8673297F86732002B07D140
:102FC000D7F838321846FDF7D5F9034687F8673247
:102FD00097F86732184607F51A77BD4680BD00BFDF
:102FE00090B5ADF5217D00AF3B1D18603B461960E3
:102FF0003A1D07F51473104619460122FEF7A6FD87
:10300000034687F87F3297F87F32002B40F0EA8042
:10301000D7F85032C7F82C3207F50273C7F8683278
:1030200007F10803C7F86C323B1D1B6807F51472E3
:1030300010461946FEF7C2FC034687F87F3297F820
:103040007F32002B40F0CE80D7F86432002B03D1C2
:10305000042387F87F32C5E0D7F864320B3307F5D5
:103060000572104619461522FDF7AAF807F50B72EE
:1030700007F51473104619462422FDF7A1F807F549
:103080000B723B4610461968FEF798FC034687F81A
:103090007F3297F87F32002B02D1082387F87F32E6
:1030A00097F87F32042B40F09D8007F50B7318468C
:1030B000FEF754F9034687F87F3297F87F32002BEA
:1030C00040F09080D7F84032C7F87832D7F878329D
:1030D00003F10D0207F5057302331046194613225A
:1030E000FDF76EF8D7F878320B3397F8142242F0D8
:1030F0002002D2B21A70D7F8503201221A71D7F8D2
:103100005822D7F834329A4254D0D7F878320B3359
:103110001B7803F01003002B4CD0D7F85042D7F89F
:1031200050321846D7F87812FDF7BAFD034620460C
:103130001946FDF7C5F9C7F87402D7F87432002BA9
:1031400003D1022387F87F3234E0D7F85032184693
:10315000D7F87412FDF7B0F8034687F87F32D7F836
:1031600050325033C7F8783297F87F32002B21D194
:10317000D7F8783201331B782E2B1BD1D7F8503279
:103180001B78032B06D1D7F83422D7F850325B6A6C
:103190009A4202D0D7F8343200E00023C7F87432E4
:1031A000D7F87802D7F87412FDF7A6FDD7F8503299
:1031B00001221A7197F87F32002B13D107F514738F
:1031C0001846FEF701FA034687F87F3297F87F32F8
:1031D000002B07D1D7F850321846FDF7CBF803463D
:1031E00087F87F3297F87F32184607F52177BD467A
:1031F00090BD00BF80B485B000AF03463960FB804E
:10320000FB887F2B02D8FB88FB8125E03B68002BE5
:103210000CD0FB88FF2B06D8FB88A3F18002124B51
:1032200033F8123000E00023FB8115E00023FB811E
:103230000AE0FA890C4B33F81230FA889A4200D12E
:1032400005E0FB890133FB81FB897F2BF1D9FB89E9
:1032500080339BB2DBB2FB81FB8918461437BD4635
:103260005DF8047B704700BF2CFF030080B485B07D
:1032700000AF0346FB800023FB6002E0FB680133E4
:10328000FB600F4BFA6833F81230002B06D00C4B62
:10329000FA6833F81230FA889A42EFD1084BFA688C
:1032A00033F81230002B04D0064BFA6833F8123092
:1032B00000E0FB8818461437BD465DF8047B704774
:1032C0002C0004000C02040080B582B000AF7860CE
:1032D000786817F095FE034618460837BD4680BD4E
:1032E00080B584B000AFF860B9607A603B60FB687D
:1032F000BA681A60FB687A685A60FB683A689A6034
:10330000FB683A7F5A73FB683A7E9A7378680021AB
:1033100017F0ACFD3868002117F0A8FDF86800F040
:103320000FF8FB6818461037BD4680BD80B582B0E7
:1033300000AF7860786800F003F80837BD4680BDBC
:1033400080B584B000AF78600023FB737B685B6856
:103350001846012117F08AFD7B689B6818460121F9
:1033600017F084FD0823BB7328E0012000F062F809
:103370007B685B681846002117F078FD012000F09B
:1033800059F87B685B681846012117F06FFD012032
:1033900000F050F87B681B681846FFF795FF03465E
:1033A000002B08D0BB7B013B012202FA03F3DAB207
:1033B000FB7B1344FB73BB7B013BBB73BB7B002BD1
:1033C000D3D17B689B681846002117F04FFD7B68BE
:1033D0005B681846002117F049FD7B68FA7B1A7379
:1033E0001037BD4680BD00BF80B483B000AF7860A9
:1033F0007B681B7B18460C37BD465DF8047B704725
:1034000080B582B000AF78607868FFF7EDFF0346C3
:103410001A467B685B7B5340DBB2DAB27B689B7BEE
:10342000DBB2DB43DBB21340DBB2DBB2184608375A
:10343000BD4680BD80B584B000AF78600E4B1B6880
:10344000184617F097FC0D4B1B68FB6000BF0B4B39
:103450001A68FB68D21A7B689A422CBF00230123AA
:10346000DBB2002BF3D1044B1B68184617F074FC39
:103470001037BD4680BD00BF640900105009001020
:1034800080B483B000AF78607B681B7818460C3737
:10349000BD465DF8047B704780B483B000AF7860B0
:1034A0007B685B7818460C37BD465DF8047B704737
:1034B00080B483B000AF786039603B6818460C3741
:1034C000BD465DF8047B704780B582B000AF786080
:1034D0007B68184600F07AF97B680C33184600F0D8
:1034E000A5F97B6805E07B68184600F07DF92AF0B5
:1034F00021FC18460837BD4680BD00BF90B58BB093
:1035000002AFF860B9607A60FB68BA681A60FB685D
:103510007A685A60FB6808331846796818F09AFC94
:10352000FB680022DA62FB6800221A63244B7B618D
:103530000023BB61BB6900937B6978681521FA6839
:1035400000F082F9B868FFF79BFF03461C46B86895
:10355000FFF7A2FF0346012202FA03F320461946B1
:10356000002226F085FFB868FFF78AFF03461C4655
:10357000B868FFF791FF0346012202FA03F32046E1
:103580001946012226F074FF1523FB770D4B97F99E
:103590001F205209F97F01F01F01012000FA01F1FB
:1035A00043F82210FB6806E0FB680833184618F061
:1035B000F1FC2AF0BFFB18462437BD4690BD00BF82
:1035C000E136000000E100E080B584B000AF786033
:1035D000786800F04DF80346FB60FB68002B02D1D1
:1035E0004FF0000313E0F86831F0FCFE0346184684
:1035F000094932F003F803464FF07E50194631F086
:10360000FDFF03461846054931F044FF03461846BE
:103610001037BD4680BD00BF0024744900007042D1
:1036200090B585B000AF7860786800F021F8034667
:10363000FB60786800F038F80346BB60FB68002B3D
:1036400002D0BB68002B02D14FF000030CE0B86839
:1036500031F0C8FE0446F86831F0C4FE0346204647
:10366000194631F0CBFF034618461437BD4690BDCE
:1036700080B582B000AF78607B680833184618F0D8
:10368000F3FE0246074B9A4294BF00230123DBB2AC
:10369000002B01D0002301E07B68DB6A1846083765
:1036A000BD4680BD20A1070080B582B000AF786024
:1036B0007B680833184618F0D7FE0246074B9A423B
:1036C00094BF00230123DBB2002B01D0002301E0D3
:1036D0007B681B6B18460837BD4680BD20A10700DC
:1036E00090B585B000AF78607B681B681846FFF71F
:1036F000C7FE03461C467B681B681846FFF7CCFED6
:10370000034620461946012226F03EFF0346002BC1
:103710000CBF00230123DBB2002B02D00023FB737C
:103720001DE07B681B681846FFF7AAFE03461C468F
:103730007B681B681846FFF7AFFE03462046194614
:10374000002226F021FF0346002B0CBF002301239B
:10375000DBB2002B02D00123FB7300E032E07B6878
:103760001B681846FFF78CFE03461C467B681B68E7
:103770001846FFF791FE0346012202FA03F32046A2
:10378000194626F053FFFB7B83F00103DBB2002BCD
:103790000DD07B680833184618F066FE02467B6839
:1037A000DA627B680833184618F0A2FD0AE0FB7B5A
:1037B000002B07D07B680833184618F055FE0246E8
:1037C0007B681A631437BD4690BD00BF80B582B0D8
:1037D00000AF78607B68184600F08EF87B6818466A
:1037E0000837BD4680BD00BFB0B582B000AF78607D
:1037F0007B681D687B685C687B68184600F0ACF8E5
:103800000346284621461A4600F0B2F87B6818465F
:1038100000F080F87B6805E07B68184600F07AF8D5
:103820002AF088FA18460837BD46B0BD80B582B088
:1038300000AF78607B68184600F0A8F87B681846EF
:103840000837BD4680BD00BF82B090B585B000AFDF
:10385000F8607A607B620B46FB727B6A002B04D1B6
:10386000BB6A03F00103002B33D07B68002B30D000
:1038700097F90B20FB6853F82230002B17D1182042
:103880002AF03AFD044600232360002363600023EE
:10389000A3600023E36000232361002363612046CB
:1038A000FFF712FE97F90B20FB6843F8224097F9C7
:1038B0000B20FB6853F822301846796807F124037F
:1038C0000CCB00F001F904E020462AF02FFA2AF090
:1038D00031FA1437BD46BDE8904002B0704700BFD2
:1038E00080B582B000AF7860786800F031F97B680D
:1038F00018460837BD4680BD80B582B000AF7860FD
:103900007B68184600F00EF97B6818460837BD46FC
:1039100080BD00BF80B582B000AF78607B681A6858
:103920007B689B6819467B681B68CB1A9B1078687C
:1039300011461A4600F018F97B681846FFF7D0FFC9
:103940007B6805E07B681846FFF7CAFF2AF0F2F9AA
:1039500018460837BD4680BD80B483B000AF78609C
:103960007B6818460C37BD465DF8047B704700BF86
:1039700080B584B000AFF860B9607A60F868B96863
:1039800000F004F91037BD4680BD00BF80B582B09D
:1039900000AF78607B68184600F004F97B68184631
:1039A0000837BD4680BD00BF80B483B000AF7860EB
:1039B0007B685B681A467B681B68D31A9B101846A5
:1039C0000C37BD465DF8047B704700BF80B483B000
:1039D00000AF786039607B681A683B689B001344CD
:1039E00018460C37BD465DF8047B704780B584B03F
:1039F00000AF78607B6807F10C021046194600F0B2
:103A0000E7F8FB6818461037BD4680BD80B584B026
:103A100000AF786039607B681A683B681B689B0060
:103A20001344FB6007F1080207F10C031046194626
:103A300000F0CEF8BB6818461037BD4680BD00BF09
:103A400090B587B000AF786039600123FB603A46DB
:103A500007F10C0310461946FFF7D8FF0346BB6079
:103A6000786800F0C5F803463B6107F1080207F1EA
:103A700010031046194600F0CDF80346002B12D073
:103A800001237B613A4607F1140310461946FFF7FC
:103A9000BDFF0446786800F0ABF80346204619469F
:103AA0003A6800F0CFF87B685B681A1F7B685A6041
:103AB0007A687B685B681046194600F0DBF83B6863
:103AC00018461C37BD4690BD90B587B000AFF86072
:103AD000B960394681E80C00BB68002B1FD03B68F9
:103AE000002B04D17B6803F00103002B17D01020BA
:103AF0002AF002FC03461C46204600F0D7F87C6101
:103B00007869B9683B460CCB00F0ECF8FA687B6941
:103B10003B6107F110031046194600F005F91C3708
:103B2000BD4690BD80B582B000AF7860786800F087
:103B300021F97B6800221A607B6800225A607B684A
:103B400000229A607B6818460837BD4680BD00BFDA
:103B500080B582B000AF7860786800F017F97B68B4
:103B600018460837BD4680BD80B584B000AFF86008
:103B7000B9607A60BB68002B05D0FB681846B9684D
:103B80007A6800F00FF91037BD4680BD80B582B06D
:103B900000AF786039607868396800F00FF908374D
:103BA000BD4680BD80B582B000AF7860786800F017
:103BB0000FF97B6800221A607B6800225A607B68DC
:103BC00000229A607B6818460837BD4680BD00BF5A
:103BD00080B483B000AF786039603B681A687B6856
:103BE0001A607B6818460C37BD465DF8047B704749
:103BF00080B584B000AF78607B68043307F10C02B5
:103C000010461946FFF7E4FFFB6818461037BD461B
:103C100080BD00BF90B583B000AF78603960786830
:103C200000F0E2F803461C68386800F0DDF803464F
:103C30001B689C420CBF00230123DBB218460C37E3
:103C4000BD4690BD90B585B000AFF860B9607A60B0
:103C5000F86800F0D5F80446B86800F0D1F80346DB
:103C6000204619467A6800F0D7F8034618461437FC
:103C7000BD4690BD80B582B000AF7860396078688D
:103C8000396800F0EFF80837BD4680BD80B483B0D6
:103C900000AF78607B68044A1A607B6818460C376E
:103CA000BD465DF8047B70472004040080B582B0F7
:103CB00000AF78607B681846FFF7E8FF7B68084A2A
:103CC0001A607B6800225A607B6800229A607B68D9
:103CD0000022DA607B6818460837BD4680BD00BF09
:103CE0001004040080B485B000AFF860B9603946B4
:103CF00081E80C00BB68002B11D03B68002B04D17D
:103D00007B6803F00103002B09D0FB68BA685A6096
:103D1000FB6808333A4692E8030083E8030014374F
:103D2000BD465DF8047B704780B582B000AF786017
:103D300039607B685A687B689B689A420DD07A68C4
:103D40007B685B68104619463A6800F095F87B6816
:103D50005B681A1D7B685A6008E07868FFF748FFC7
:103D60000346786819463A6800F094F80837BD466B
:103D700080BD00BF80B582B000AF7860786800F089
:103D800073F97B6818460837BD4680BD80B483B0A0
:103D900000AF78607B6818460C37BD465DF8047B41
:103DA000704700BF80B584B000AFF860B9607A603A
:103DB000B86829F0BBFF1037BD4680BD80B483B022
:103DC00000AF786039600C37BD465DF8047B704702
:103DD00080B582B000AF7860786800F051F97B68F8
:103DE00018460837BD4680BD80B483B000AF786008
:103DF0007B6818460C37BD465DF8047B704700BFF2
:103E000080B582B000AF7860786800F059F9034659
:103E100018460837BD4680BDB0B586B000AFF86023
:103E2000B9607A60F86800F057F90546B86800F0A4
:103E300053F90446786800F04FF9034628462146B6
:103E40001A4600F055F903467B6107F1100207F1AD
:103E5000140310461946FFF7BBFE3B691846183796
:103E6000BD46B0BD80B483B000AF786039600C3718
:103E7000BD465DF8047B704780B584B000AFF86044
:103E8000B9607A60F868B9687A6800F043F9103769
:103E9000BD4680BDB0B58AB000AFF860B9607A6049
:103EA000FB685A68FB689B689A422ED0F968FB68E9
:103EB0005A68FB685B68043B084611461A46FFF7E0
:103EC000DBFFFB685B681A1DFB685A607B681B6838
:103ED0003B6207F108031846FFF786FF034619689F
:103EE000FB685B68A3F10802FB685B68043B08465B
:103EF00011461A4600F022F907F10803184600F0AF
:103F000035F903463A6A1A60A8E0F8680121554A73
:103F100000F038F90346FB61F868FFF767FD0346D8
:103F20003B6107F1080207F110031046194600F043
:103F300071F90346BB61FB681846F96900F080F926
:103F400003467B617B697B62FA68BB699B00796988
:103F50000B44104619467A68FFF78EFF00237B62F8
:103F6000FB681D6807F108031846FFF73DFF03468D
:103F70001C68FB681846FFF7EFFC034628462146FD
:103F80007A6900F073F903467B627B6A04337B62D3
:103F900007F108031846FFF727FF03461D68FB6873
:103FA0005C68FB681846FFF7D7FC034628462146A5
:103FB0007A6A00F05BF903467B62FB681D68FB6868
:103FC0005C68FB681846FFF7C7FC03462846214695
:103FD0001A46FFF7CDFCF968FB681A68FB689B6816
:103FE0001846FB681B68C31A9B10084611461A4600
:103FF000FFF7BAFDFB687A691A60FB687A6A5A6053
:10400000FB699B007A691A44FB689A6026E02AF0F3
:10401000E5F929F08FFE034618462AF099F97B6AE4
:10402000002B09D1FA68BB699B0079690B441046E3
:104030001946FFF71FFE09E0FB681846FFF78CFCE6
:1040400003467869796A1A46FFF792FCFB681846BE
:104050007969FA69FFF788FD2AF058F82837BD46D4
:10406000B0BD00BFEC03040080B483B000AF786043
:104070007B6818460C37BD465DF8047B704700BF6F
:1040800080B483B000AF78607B6818460C37BD46BB
:104090005DF8047B704700BF80B483B000AF7860E8
:1040A00039607B681A683B681B689A4201D23B689A
:1040B00000E07B6818460C37BD465DF8047B70470E
:1040C00080B483B000AF78607B6818460C37BD467B
:1040D0005DF8047B704700BF80B582B000AF7860A8
:1040E000786800F0D5F8034618460837BD4680BD0D
:1040F00080B586B000AFF860B9607A600123FB75C7
:10410000F868B9687A6800F0D1F80346184618379D
:10411000BD4680BD80B584B000AFF860B9607A60FC
:10412000BB6804201946FFF7C3F90346002B02D0F1
:104130007A6812681A601037BD4680BD90B585B0A8
:1041400000AFF860B9607A60F86800F0CDF8044616
:10415000B86800F0C9F80346204619467A6800F0AE
:10416000CFF8034618461437BD4690BD80B483B0DF
:1041700000AF78607B681B6818460C37BD465DF859
:10418000047B704790B587B000AFF860B9607A6083
:10419000F86800F0D1F80446F868FFF705FC03461C
:1041A000E21ABB689A422CBF00230123DBB2002B2A
:1041B00002D078682AF0C6FDF868FFF7F5FB0446E0
:1041C000F868FFF7F1FB03463B6107F1100207F1C6
:1041D000080310461946FFF75FFF03461B68234498
:1041E0007B61F868FFF7E0FB02467B699A4206D8DC
:1041F000F86800F0A1F802467B699A4204D2F86898
:1042000000F09AF8034600E07B6918461C37BD466B
:1042100090BD00BF90B583B000AF7860396078681A
:10422000FFF7E2FD03461B681C463868FFF7DCFD1C
:1042300003461B68E31A9B1018460C37BD4690BD19
:1042400080B582B000AF786039603B68002B07D042
:104250007B6818463968002200F080F8034600E0C9
:10426000002318460837BD4680BD00BF80B584B026
:1042700000AFF860B9607A603B60F868B9687A6846
:104280003B6800F089F8034618461037BD4680BDEC
:1042900080B582B000AF78603B1D1846FFF7A4FDE3
:1042A00003461B6818460837BD4680BD80B586B0FA
:1042B00000AFF860B9607A60BA68FB68D31A9B10E7
:1042C0007B617B69002B06D07B699B007868F9686D
:1042D0001A4634F07FFA7B699B007A6813441846CB
:1042E0001837BD4680BD00BF80B582B000AF786092
:1042F000786800F063F8034618460837BD4680BD6D
:10430000B0B584B000AFF860B9607A60F86800F0CA
:1043100061F80546B86800F05DF80446786800F07A
:1043200059F80346284621461A4600F05FF803462E
:1043300018461037BD46B0BD80B582B000AF78607A
:104340007B68184600F070F80346184600F060F8E5
:10435000034618460837BD4680BD00BF80B584B00F
:1043600000AFF860B9607A60F86800F069F802465A
:10437000BB689A422CBF00230123DBB2002B01D083
:104380002AF0A6FCBB689B00184629F0B5FF03463F
:1043900018461037BD4680BD80B584B000AFF860C8
:1043A000B9607A603B60F868B9687A6800F054F8E0
:1043B000034618461037BD4680BD00BF80B483B0A9
:1043C00000AF78607B6818460C37BD465DF8047B0B
:1043D000704700BF80B582B000AF78607868FFF7A3
:1043E000EDFF034618460837BD4680BD80B586B050
:1043F00000AFF860B9607A600123FB75F868B968AE
:104400007A6800F039F8034618461837BD4680BD73
:1044100080B582B000AF7860786800F011F803468C
:1044200018460837BD4680BD80B483B000AF7860C1
:104430007B6818460C37BD465DF8047B704700BFAB
:1044400080B483B000AF78606FF0404318460C37FB
:10445000BD465DF8047B704780B584B000AFF8605E
:10446000B9607A60F868B9687A6800F029F803469C
:1044700018461037BD4680BD80B586B000AFF860E5
:10448000B9607A60BA68FB68D31A9B107B617B695C
:10449000002B0BD07B699B005B427A681A447B69D6
:1044A0009B001046F9681A4634F094F97B699B002A
:1044B0005B427A68134418461837BD4680BD00BF7A
:1044C00080B584B000AFF860B9607A60F868B96808
:1044D0007A6800F005F8034618461037BD4680BDDF
:1044E00090B585B000AFF860B9607A60F868FFF702
:1044F000FBFE0446B868FFF7F7FE03462046194660
:104500007A6800F005F8034618461437BD4690BD9A
:10451000B0B584B000AFF860B9607A60F868FFF7B2
:1045200059FF0546B868FFF755FF04467868FFF75E
:1045300051FF0346284621461A46FFF7D9FD034698
:1045400018461037BD46B0BD80B582B000AF786068
:104550007B685B68002B25D07B689B68002B05D1AE
:104560007B68DB6803F00103002B1BD07B68DB68F2
:1045700003F00103002B02D17B689B680AE07B6893
:104580005A687B68DB685B1013441A687B689B6819
:1045900013441B687A6851687A68D26852100A44DA
:1045A000104698470837BD4680BD00BF90B58BB018
:1045B00002AFF860B9607A60FB68BA681A60FB689D
:1045C0007A685A60FB680833184617F031FCFB68BC
:1045D0002C33184617F02CFCFB680022A3F850205F
:1045E000274B7B610023BB61BB6900937B697868C3
:1045F0001521FA6800F03EF9B868FEF741FF03465E
:104600001C46B868FEF748FF0346012202FA03F38E
:1046100020461946002225F02BFFB868FEF730FF30
:1046200003461C46B868FEF737FF0346012202FA2C
:1046300003F320461946012225F01AFF1523FB77C4
:10464000104B97F91F205209F97F01F01F0101203B
:1046500000FA01F143F82210FB680CE0FB682C33F0
:10466000184617F097FCFFE7FB680833184617F069
:1046700091FC29F05FFB18462437BD4690BD00BF72
:104680008946000000E100E090B587B000AF786097
:104690007B681B681846FEF7F3FE03461C467B68E2
:1046A0001B681846FEF7F8FE03462046194601220D
:1046B00025F06AFF0346002B0CBF00230123DBB269
:1046C000002B02D00023FB751DE07B681B68184699
:1046D000FEF7D6FE03461C467B681B681846FEF7AD
:1046E000DBFE034620461946002225F04DFF034617
:1046F000002B0CBF00230123DBB2002B02D00123CF
:10470000FB7500E0ABE07B681B681846FEF7B8FE5F
:1047100003461C467B681B681846FEF7BDFE034631
:10472000012202FA03F32046194625F07FFF7B6839
:104730002C33184617F098FE03463B617B682C33F8
:10474000184617F0D5FD3A694EF65F239A4202D912
:10475000444B00221A70434B1B7883F00103DBB2F9
:10476000002B0CD03F4B01221A703F4B00221A70D5
:104770003E4B00221A703E4B00221A806FE03B4BEA
:104780001B78002B03D0394B1A78384B1A70364BF4
:104790001B78002B01D0012300E00023FB7317E0FE
:1047A000FA7B324B1B78591CC8B23049087002FAA8
:1047B00003F32F4A128813449AB22D4B1A803B6997
:1047C000B3F57A6F00D207E03B69A3F57A633B61EA
:1047D0003B69B3F5FA6FE3D2244B1B780C2B15D150
:1047E000FB7D002B01D0012300E00023FB73FA7B4B
:1047F0001E4B1B78591CC8B21C49087002FA03F3FF
:104800001B4A128813449AB2194B1A80174B1B7813
:104810000D2B1AD1164B1B8803F48053002B0CBFB1
:1048200000230123BB73124B1B8823F4C0539AB29D
:104830000F4B1A800E4B1B885B109AB20C4B1A80E0
:104840000B4B1A887B68A3F85020084B1B780C2B65
:1048500002D9044B00221A70034BFA7D1A701C37E0
:10486000BD4690BDFA080010FB080010FC080010BF
:10487000FE08001082B090B585B000AFF8607A6095
:104880007B620B46FB727B6A002B04D1BB6A03F090
:104890000103002B33D07B68002B30D097F90B201D
:1048A000FB6853F82230002B17D1182029F024FD83
:1048B000044600232360002363600023A3600023D9
:1048C000E36000232361002363612046FEF7FCFDC3
:1048D00097F90B20FB6843F8224097F90B20FB68FF
:1048E00053F822301846796807F124030CCB00F006
:1048F0000DF804E0204629F019FA29F01BFA1437C4
:10490000BD46BDE8904002B0704700BF90B587B08B
:1049100000AFF860B960394681E80C00BB68002B35
:104920001FD03B68002B04D17B6803F00103002BF0
:1049300017D0102029F0E0FC03461C46204600F06A
:1049400013F87C617869B9683B460CCB00F028F815
:10495000FA687B693B6107F1100310461946FFF7BF
:10496000E3F91C37BD4690BD80B582B000AF7860DA
:104970007B681846FFF78AF97B68084A1A607B68EB
:1049800000225A607B6800229A607B680022DA600D
:104990007B6818460837BD4680BD00BF8804040008
:1049A00080B485B000AFF860B960394681E80C008A
:1049B000BB68002B11D03B68002B04D17B6803F04F
:1049C0000103002B09D0FB68BA685A60FB68083302
:1049D0003A4692E8030083E803001437BD465DF8C9
:1049E000047B704780B582B000AF78607B685B68FD
:1049F000002B25D07B689B68002B05D17B68DB688A
:104A000003F00103002B1BD07B68DB6803F001037C
:104A1000002B02D17B689B680AE07B685A687B6840
:104A2000DB685B1013441A687B689B6813441B683F
:104A30007A6851687A68D26852100A4410469847DA
:104A40000837BD4680BD00BF90B583B000AF4FF4BE
:104A5000F27029F051FC03461C46204605F066F929
:104A60007C60786808F08EF8002304E0204629F086
:104A70005DF929F05FF918460C37BD4690BD00BFBF
:104A800080B582B000AF78600B46FB70FA787B6827
:104A90000C3253F82230002B07D0FA787B680C32A6
:104AA00053F82230184600F0B3FC0837BD4680BDED
:104AB00080B582B000AF78607B68184600F066FD74
:104AC0007B680C33184600F091FD7B6805E07B683D
:104AD000184600F069FD29F02DF918460837BD4643
:104AE00080BD00BF90B58BB002AFF860B9607A604E
:104AF0003B60FB68BA681A60FB687A685A60FB68BA
:104B00003A689A60FB683A6BDA60FB687A6B1A6104
:104B1000FB68BA6B5A61FB68FA6B9A61FB683A6C86
:104B2000DA61FB687A6C1A62FB68BA6C5A62FB68DD
:104B300078331846FFF7BCFFBB681B6808331B6857
:104B4000B868012198477B681B6808331B68786840
:104B5000012198473B681B6808331B6838680121AE
:104B600098473B6B1B6808331B68386B01219847DB
:104B70007B6B1B6808331B68786B01219847B8680A
:104B8000002116F073F97868002116F06FF9386883
:104B9000002116F06BF9386B002116F067F9786B7D
:104BA000002116F063F9B86B16F05AFAF86B16F09C
:104BB00057FA386C16F054FA786C16F051FA002354
:104BC000FB6108E0FB68FA690C32002143F822100F
:104BD000FB690133FB61FB69112BF3D9242029F018
:104BE0008BFB04462046B96C17F034F9FB689C62D5
:104BF000242029F081FB04462046B96C17F02AF9DD
:104C0000FB68DC62FB680022C3F890205B4B3B61D1
:104C100000237B617B6900933B69B86C1521FA68BE
:104C200000F044FDB86BFEF72BFC03461C46B86B46
:104C3000FEF732FC0346012202FA03F3204619462E
:104C4000012225F015FCF86BFEF71AFC03461C4602
:104C5000F86BFEF721FC0346012202FA03F320461B
:104C60001946012225F004FC386CFEF709FC0346C6
:104C70001C46386CFEF710FC0346012202FA03F3CF
:104C800020461946012225F0F3FB786CFEF7F8FB6D
:104C900003461C46786CFEF7FFFB0346012202FA2E
:104CA00003F320461946012225F0E2FBB86BFEF71C
:104CB000E7FB03461C46B86BFEF7EEFB03460122FA
:104CC00002FA03F320461946002225F0D1FBF86BC7
:104CD000FEF7D6FB03461C46F86BFEF7DDFB0346EA
:104CE000012202FA03F320461946002225F0C0FBF8
:104CF000386CFEF7C5FB03461C46386CFEF7CCFB50
:104D00000346012202FA03F320461946002225F049
:104D1000AFFB786CFEF7B4FB03461C46786CFEF7DD
:104D2000BBFB0346012202FA03F320461946002288
:104D300025F09EFB1523FB76114B97F91B2052099A
:104D4000F97E01F01F01012000FA01F143F8221061
:104D5000FB680EE0204628F0E9FF03E0204628F03B
:104D6000E5FFFFE7FB687833184600F06FFC28F09A
:104D7000E1FF18462437BD4690BD00BF2951000011
:104D800000E100E080B58EB000AF78607B681B6802
:104D9000BB617B685B68FB617B689B683B627B688F
:104DA000DB687B627B681B69BB627B685B69BB609D
:104DB0007B689B69FB607B68DB693B617B681B6A86
:104DC0007B6100237B6300233B63002387F82F3044
:104DD00010E097F82F309B0007F13802134453F886
:104DE000203C1846012116F041F897F82F30013386
:104DF00087F82F3097F82F30042BEAD9002387F853
:104E00002E3044E097F82E309B0007F1380213440F
:104E100053F8203C1846002116F028F8002387F8A4
:104E20002D301FE097F82D309B0007F13802134416
:104E300053F8303C1846FEF747FA034683F0010367
:104E4000DBB2002B06D03B6B012202FA03F37A6B34
:104E500013447B633B6B01333B6397F82D30013385
:104E600087F82D3097F82D30032BDBD997F82E30AB
:104E70009B0007F13802134453F8203C18460121E7
:104E800015F0F4FF97F82E30013387F82E3097F89D
:104E90002E30042BB6D9002387F82C3010E097F879
:104EA0002C309B0007F13802134453F8203C18467D
:104EB000002115F0DBFF97F82C30013387F82C30F8
:104EC00097F82C30042BEAD97B6B18463837BD464F
:104ED00080BD00BF80B58AB002AF78607868FFF708
:104EE00051FF0346FB617B68D3F89030002B25D13E
:104EF000FB69002B22D07B68DB6A8A4AFA600022B9
:104F00003A61322200921846796807F10C030CCB03
:104F100000F018FC7B68DB6A184617F0E9F97B683B
:104F2000FA69C3F890207B6803F178027B68D3F8B4
:104F300090301046194600F01DFC4EE07B68D3F817
:104F40009030002B33D0FB69002B30D07B68DB6ABC
:104F5000744A7A610022BA61322200921846796856
:104F600007F114030CCB00F0EDFB7B68DB6A1846FD
:104F700017F0BEF97B68D3F89030DB43FA69134031
:104F8000FB617B68D3F89020FB691A437B68C3F808
:104F90009020FB69002B09D07B6803F178027B68C5
:104FA000D3F890301046194600F0E4FB15E07B681A
:104FB000D3F89030002B10D0FB69002B0DD17B680B
:104FC0000022C3F890207B6803F178027B68D3F855
:104FD00090301046194600F0CDFBFB69B3F5807F99
:104FE00079D0B3F5807F17D8082B00F08380082B89
:104FF00006D8022B51D0042B59D0012B39D08DE08B
:10500000202B45D0202B02D8102B2DD086E0402B12
:1050100052D0802B73D081E0B3F5004F79D0B3F537
:10502000004F10D8B3F5805F28D0B3F5805F03D868
:10503000B3F5006F36D071E0B3F5005F41D0B3F542
:10504000804F52D06AE0B3F5003F3FD0B3F5003F48
:1050500003D8B3F5803F16D060E0B3F5802F3FD082
:10506000B3F5002F50D059E078680021FFF708FD14
:1050700054E078680121FFF703FD4FE078680221D2
:10508000FFF7FEFC4AE078680321FFF7F9FC45E0F2
:1050900078680421FFF7F4FC40E078680521FFF709
:1050A000EFFC3BE078680621FFF7EAFC36E0786821
:1050B0000721FFF7E5FC31E078680821FFF7E0FC05
:1050C0002CE078680921FFF7DBFC27E078680A21EB
:1050D000FFF7D6FC22E078680B21FFF7D1FC1DE03A
:1050E00078680C21FFF7CCFC18E078680D21FFF7F9
:1050F000C7FC13E078680E21FFF7C2FC0EE0786869
:105100000F21FFF7BDFC09E078681021FFF7B8FC1C
:1051100004E078681121FFF7B3FC00BF2037BD46DB
:1051200080BD00BFD54E000090B583B000AF786061
:105130007B685B691846FEF7A3F903461C467B684B
:105140005B691846FEF7A8F9034620461946012276
:1051500025F01AFA0346002B3ED17B689B6918465E
:10516000FEF78EF903461C467B689B691846FEF7DE
:1051700093F9034620461946012225F005FA034615
:10518000002B29D17B68DB691846FEF779F90346C5
:105190001C467B68DB691846FEF77EF9034620460D
:1051A0001946012225F0F0F90346002B14D17B6843
:1051B0001B6A1846FEF764F903461C467B681B6AA7
:1051C0001846FEF769F9034620461946012225F0E4
:1051D000DBF90346002B01D0012300E00023002B64
:1051E00064D07B689B6A184617F0F6F80346132BC9
:1051F00094BF00230123DBB2002B02D07868FFF7B5
:1052000069FE7B689B6A184617F072F87B685B69D9
:105210001846FEF735F903461C467B685B6918465D
:10522000FEF73AF90346012202FA03F32046194633
:1052300025F0FCF97B689B691846FEF721F90346C7
:105240001C467B689B691846FEF726F90346012237
:1052500002FA03F32046194625F0E8F97B68DB697A
:105260001846FEF70DF903461C467B68DB691846B5
:10527000FEF712F90346012202FA03F3204619460B
:1052800025F0D4F97B681B6A1846FEF7F9F8034647
:105290001C467B681B6A1846FEF7FEF8034601228F
:1052A00002FA03F32046194625F0C0F97B685B69D2
:1052B0001846FEF7E5F803461C467B685B6918460E
:1052C000FEF7EAF8034620461946002225F05CF96D
:1052D0000346002B3ED17B689B691846FEF7D0F849
:1052E00003461C467B689B691846FEF7D5F80346C3
:1052F00020461946002225F047F90346002B29D104
:105300007B68DB691846FEF7BBF803461C467B68E2
:10531000DB691846FEF7C0F803462046194600220E
:1053200025F032F90346002B14D17B681B6A18461E
:10533000FEF7A6F803461C467B681B6A1846FEF774
:10534000ABF8034620461946002225F01DF9034616
:10535000002B01D0012300E00023002B54D07B68F8
:105360009B6A184616F0C4FF7B685B691846FEF717
:1053700087F803461C467B685B691846FEF78CF885
:105380000346012202FA03F32046194625F04EF99E
:105390007B689B691846FEF773F803461C467B68DA
:1053A0009B691846FEF778F80346012202FA03F3D8
:1053B0002046194625F03AF97B68DB691846FEF766
:1053C0005FF803461C467B68DB691846FEF764F805
:1053D0000346012202FA03F32046194625F026F976
:1053E0007B681B6A1846FEF74BF803461C467B6831
:1053F0001B6A1846FEF750F80346012202FA03F32F
:105400002046194625F012F90C37BD4690BD00BF65
:1054100080B586B000AF78607B680C33184600F02A
:1054200007FA78617B69012B09D17B680C33184638
:10543000002100F00FFA03461B68984749E00EE090
:105440007B69002B14BF00230123FB737B680C33A3
:105450001846796900F0FEF903461B6898477B6996
:105460005A1E7A61002B0CBF00230123DBB2002BF4
:10547000E6D17B681846FEF797FA38613B69012B45
:105480000BD17B6818460021FEF7A0FA03461B6883
:105490001A681268184690471BE010E03B69002B21
:1054A00014BF00230123BB737B6818463969FEF7DC
:1054B0008DFA03461B681A681268184690473B69C4
:1054C0005A1E3A61002B0CBF00230123DBB2002BD4
:1054D000E4D11837BD4680BD90B589B000AF786083
:1054E0007B681846FEF760FAF86122E0FB69013B31
:1054F000FB617B681846F969FEF768FA03461B688A
:10550000184628F013FC7C687B681846FEF76EFA94
:105510000346BB60FB69FB6007F1080207F10C035F
:1055200010461946FEF772FA034620461946FEF762
:1055300087FAFB69002BD9D17B680C33184600F041
:1055400077F9B8611BE0BB69013BBB617B6803F184
:105550000C047B680C33184600F08CF903463B6161
:10556000BB697B6107F1100207F11403104619466D
:1055700000F090F903462046194600F0A5F9BB69F2
:10558000002BE0D12437BD4690BD00BF80B582B06E
:1055900000AF78607B68184600F0E6F97B68184633
:1055A0000837BD4680BD00BFB0B582B000AF78609F
:1055B0007B681D687B685C687B68184600F004FAAD
:1055C0000346284621461A4600F00AFA7B68184628
:1055D00000F0D8F97B6805E07B68184600F0D2F946
:1055E00028F0A8FB18460837BD46B0BD80B582B08C
:1055F00000AF78607B68184600F00CFA7B681846AC
:105600000837BD4680BD00BFB0B582B000AF78603E
:105610007B681D687B685C687B68184600F02AFA26
:105620000346284621461A4600F030FA7B681846A1
:1056300000F0FEF97B6805E07B68184600F0F8F999
:1056400028F078FB18460837BD46B0BD80B584B059
:1056500000AF78607B68184600F026FAF8600CE02E
:10566000FB68013BFB607B681846F96800F02EFA86
:1056700003461B68184628F059FBFB68002BEFD146
:105680007B680C331846FFF7BFFF7B681846FFF7AF
:105690008BFF7B6805E07B681846FFF785FF28F0E5
:1056A00049FB18461037BD4680BD00BF82B090B59B
:1056B00085B000AFF8607A607B620B46FB727B6A54
:1056C000002B04D1BB6A03F00103002B33D07B68AD
:1056D000002B30D097F90B20FB6853F82230002BB9
:1056E00017D1182028F008FE044600232360002369
:1056F00063600023A3600023E36000232361002391
:1057000063612046FDF7E0FE97F90B20FB6843F844
:10571000224097F90B20FB6853F82230184679682D
:1057200007F124030CCB00F0E1F904E0204628F057
:10573000FDFA28F0FFFA1437BD46BDE8904002B0EC
:10574000704700BF80B586B002AFF860B9603946D7
:1057500081E80C00BB694FF47A7202FB03F30093FB
:10576000F868B9683B460CCB00F0EEF918461037E4
:10577000BD4680BD80B584B000AF786039607B687D
:105780000C33184600F024FAF860FB68012B0AD1AC
:105790007B680C331846002100F02CFA03461B6886
:1057A0003868984740E009E07B680C331846F96890
:1057B00000F020FA03461B6838689847FB685A1EB9
:1057C000FA60002B0CBF00230123DBB2002BEBD1CE
:1057D0007B68184600F068F9B860BB68012B0CD1F3
:1057E0007B681846002100F071F903461B681A68AF
:1057F000126818463968904716E00BE07B68184637
:10580000B96800F063F903461B681A681268184605
:1058100039689047BB685A1EBA60002B0CBF002342
:105820000123DBB2002BE9D11037BD4680BD00BF9C
:1058300080B483B000AF78607B685B681A467B6891
:105840001B68D31A9B1018460C37BD465DF8047BC5
:10585000704700BF80B483B000AF786039607B6868
:105860001A683B689B00134418460C37BD465DF828
:10587000047B704780B584B000AF78607B6807F127
:105880000C021046194600F0D7F9FB68184610378D
:10589000BD4680BD80B584B000AF786039607B685C
:1058A0001A683B681B689B001344FB6007F1080201
:1058B00007F10C031046194600F0BEF9BB68184604
:1058C0001037BD4680BD00BF90B587B000AF78608F
:1058D00039600123FB603A4607F10C031046194674
:1058E000FFF7D8FF0346BB60786800F093F90346E2
:1058F0003B6107F1080207F110031046194600F05A
:10590000ABF90346002B12D001237B613A4607F125
:10591000140310461946FFF7BDFF0446786800F0EF
:1059200079F90346204619463A6800F0ADF97B68DC
:105930005B681A1F7B685A607A687B685B681046F0
:10594000194600F0B9F93B6818461C37BD4690BDB2
:1059500080B582B000AF7860786800F0CFF97B68DE
:1059600018460837BD4680BD80B582B000AF78606C
:105970007B68184600F0ACF97B6818460837BD46CE
:1059800080BD00BF80B582B000AF78607B681A68C8
:105990007B689B6819467B681B68CB1A9B107868EC
:1059A00011461A4600F0B6F97B681846FFF7D0FF9B
:1059B0007B6805E07B681846FFF7CAFF28F0BAF954
:1059C00018460837BD4680BD80B483B000AF78600C
:1059D0007B6818460C37BD465DF8047B704700BFF6
:1059E00080B584B000AFF860B9607A60F868B968D3
:1059F00000F0A2F91037BD4680BD00BF80B582B06F
:105A000000AF7860786800F0B9F97B68184608370D
:105A1000BD4680BD80B582B000AF78607B68184617
:105A200000F096F97B6818460837BD4680BD00BF78
:105A300080B582B000AF78607B681A687B689B682D
:105A400019467B681B68CB1A9B10786811461A466A
:105A500000F0A0F97B681846FFF7D0FF7B6805E0EF
:105A60007B681846FFF7CAFF28F064F91846083724
:105A7000BD4680BD80B483B000AF78607B681846B7
:105A80000C37BD465DF8047B704700BF80B584B01D
:105A900000AFF860B9607A60F868B96800F08CF916
:105AA0001037BD4680BD00BF80B483B000AF7860C2
:105AB0007B685B681A467B681B68D31A9B10184684
:105AC0000C37BD465DF8047B704700BF80B483B0DF
:105AD00000AF786039607B681A683B689B001344AC
